{
  "_format": "hh-sol-artifact-1",
  "contractName": "Upload",
  "sourceName": "contracts/Upload.sol",
  "abi": [
    {
      "inputs": [],
      "name": "Upload__PermissionDenied",
      "type": "error"
    },
    {
      "inputs": [
        {
          "internalType": "address",
          "name": "",
          "type": "address"
        },
        {
          "internalType": "uint256",
          "name": "",
          "type": "uint256"
        }
      ],
      "name": "accessList",
      "outputs": [
        {
          "internalType": "address",
          "name": "user",
          "type": "address"
        },
        {
          "internalType": "bool",
          "name": "access",
          "type": "bool"
        }
      ],
      "stateMutability": "view",
      "type": "function"
    },
    {
      "inputs": [
        {
          "internalType": "address",
          "name": "_user",
          "type": "address"
        },
        {
          "internalType": "string",
          "name": "url",
          "type": "string"
        }
      ],
      "name": "add",
      "outputs": [],
      "stateMutability": "nonpayable",
      "type": "function"
    },
    {
      "inputs": [
        {
          "internalType": "address",
          "name": "user",
          "type": "address"
        }
      ],
      "name": "allow",
      "outputs": [],
      "stateMutability": "nonpayable",
      "type": "function"
    },
    {
      "inputs": [
        {
          "internalType": "address",
          "name": "user",
          "type": "address"
        }
      ],
      "name": "disallow",
      "outputs": [],
      "stateMutability": "nonpayable",
      "type": "function"
    },
    {
      "inputs": [
        {
          "internalType": "address",
          "name": "_user",
          "type": "address"
        }
      ],
      "name": "display",
      "outputs": [
        {
          "internalType": "string[]",
          "name": "",
          "type": "string[]"
        }
      ],
      "stateMutability": "view",
      "type": "function"
    },
    {
      "inputs": [],
      "name": "shareAccess",
      "outputs": [
        {
          "components": [
            {
              "internalType": "address",
              "name": "user",
              "type": "address"
            },
            {
              "internalType": "bool",
              "name": "access",
              "type": "bool"
            }
          ],
          "internalType": "struct Upload.Access[]",
          "name": "",
          "type": "tuple[]"
        }
      ],
      "stateMutability": "view",
      "type": "function"
    }
  ],
  "bytecode": "0x608060405234801561001057600080fd5b506113ce806100206000396000f3fe608060405234801561001057600080fd5b50600436106100625760003560e01c806336d6da551461006757806370c2b41914610083578063a9ed9cb8146100b4578063bc8bef81146100d0578063eb39113f146100ee578063ff9913e81461011e575b600080fd5b610081600480360381019061007c9190610c6b565b61013a565b005b61009d60048036038101906100989190610d01565b6101b9565b6040516100ab929190610d6b565b60405180910390f35b6100ce60048036038101906100c99190610d94565b610223565b005b6100d861043f565b6040516100e59190610ebd565b60405180910390f35b61010860048036038101906101039190610d94565b610548565b6040516101159190611031565b60405180910390f35b61013860048036038101906101339190610d94565b610758565b005b6000808473ffffffffffffffffffffffffffffffffffffffff1673ffffffffffffffffffffffffffffffffffffffff1681526020019081526020016000208282909180600181540180825580915050600190039060005260206000200160009091929091929091929091925091826101b3929190611299565b50505050565b600260205281600052604060002081815481106101d557600080fd5b90600052602060002001600091509150508060000160009054906101000a900473ffffffffffffffffffffffffffffffffffffffff16908060000160149054906101000a900460ff16905082565b6000600160003373ffffffffffffffffffffffffffffffffffffffff1673ffffffffffffffffffffffffffffffffffffffff16815260200190815260200160002060008373ffffffffffffffffffffffffffffffffffffffff1673ffffffffffffffffffffffffffffffffffffffff16815260200190815260200160002060006101000a81548160ff02191690831515021790555060005b600260003373ffffffffffffffffffffffffffffffffffffffff1673ffffffffffffffffffffffffffffffffffffffff1681526020019081526020016000208054905081101561043b578173ffffffffffffffffffffffffffffffffffffffff16600260003373ffffffffffffffffffffffffffffffffffffffff1673ffffffffffffffffffffffffffffffffffffffff168152602001908152602001600020828154811061036d5761036c611369565b5b9060005260206000200160000160009054906101000a900473ffffffffffffffffffffffffffffffffffffffff1673ffffffffffffffffffffffffffffffffffffffff160361042e576000600260003373ffffffffffffffffffffffffffffffffffffffff1673ffffffffffffffffffffffffffffffffffffffff168152602001908152602001600020828154811061040957610408611369565b5b9060005260206000200160000160146101000a81548160ff0219169083151502179055505b80806001019150506102bb565b5050565b6060600260003373ffffffffffffffffffffffffffffffffffffffff1673ffffffffffffffffffffffffffffffffffffffff168152602001908152602001600020805480602002602001604051908101604052809291908181526020016000905b8282101561053f578382906000526020600020016040518060400160405290816000820160009054906101000a900473ffffffffffffffffffffffffffffffffffffffff1673ffffffffffffffffffffffffffffffffffffffff1673ffffffffffffffffffffffffffffffffffffffff1681526020016000820160149054906101000a900460ff161515151581525050815260200190600101906104a0565b50505050905090565b60603373ffffffffffffffffffffffffffffffffffffffff168273ffffffffffffffffffffffffffffffffffffffff1614158061060c5750600160008373ffffffffffffffffffffffffffffffffffffffff1673ffffffffffffffffffffffffffffffffffffffff16815260200190815260200160002060003373ffffffffffffffffffffffffffffffffffffffff1673ffffffffffffffffffffffffffffffffffffffff16815260200190815260200160002060009054906101000a900460ff16155b15610643576040517f28d82c9600000000000000000000000000000000000000000000000000000000815260040160405180910390fd5b6000808373ffffffffffffffffffffffffffffffffffffffff1673ffffffffffffffffffffffffffffffffffffffff168152602001908152602001600020805480602002602001604051908101604052809291908181526020016000905b8282101561074d5783829060005260206000200180546106c0906110bc565b80601f01602080910402602001604051908101604052809291908181526020018280546106ec906110bc565b80156107395780601f1061070e57610100808354040283529160200191610739565b820191906000526020600020905b81548152906001019060200180831161071c57829003601f168201915b5050505050815260200190600101906106a1565b505050509050919050565b60018060003373ffffffffffffffffffffffffffffffffffffffff1673ffffffffffffffffffffffffffffffffffffffff16815260200190815260200160002060008373ffffffffffffffffffffffffffffffffffffffff1673ffffffffffffffffffffffffffffffffffffffff16815260200190815260200160002060006101000a81548160ff02191690831515021790555060011515600360003373ffffffffffffffffffffffffffffffffffffffff1673ffffffffffffffffffffffffffffffffffffffff16815260200190815260200160002060008373ffffffffffffffffffffffffffffffffffffffff1673ffffffffffffffffffffffffffffffffffffffff16815260200190815260200160002060009054906101000a900460ff16151503610a0a5760005b600260003373ffffffffffffffffffffffffffffffffffffffff1673ffffffffffffffffffffffffffffffffffffffff16815260200190815260200160002080549050811015610a04578173ffffffffffffffffffffffffffffffffffffffff16600260003373ffffffffffffffffffffffffffffffffffffffff1673ffffffffffffffffffffffffffffffffffffffff168152602001908152602001600020828154811061093657610935611369565b5b9060005260206000200160000160009054906101000a900473ffffffffffffffffffffffffffffffffffffffff1673ffffffffffffffffffffffffffffffffffffffff16036109f7576001600260003373ffffffffffffffffffffffffffffffffffffffff1673ffffffffffffffffffffffffffffffffffffffff16815260200190815260200160002082815481106109d2576109d1611369565b5b9060005260206000200160000160146101000a81548160ff0219169083151502179055505b8080600101915050610884565b50610b9b565b600260003373ffffffffffffffffffffffffffffffffffffffff1673ffffffffffffffffffffffffffffffffffffffff16815260200190815260200160002060405180604001604052808373ffffffffffffffffffffffffffffffffffffffff168152602001600115158152509080600181540180825580915050600190039060005260206000200160009091909190915060008201518160000160006101000a81548173ffffffffffffffffffffffffffffffffffffffff021916908373ffffffffffffffffffffffffffffffffffffffff16021790555060208201518160000160146101000a81548160ff02191690831515021790555050506001600360003373ffffffffffffffffffffffffffffffffffffffff1673ffffffffffffffffffffffffffffffffffffffff16815260200190815260200160002060008373ffffffffffffffffffffffffffffffffffffffff1673ffffffffffffffffffffffffffffffffffffffff16815260200190815260200160002060006101000a81548160ff0219169083151502179055505b50565b600080fd5b600080fd5b600073ffffffffffffffffffffffffffffffffffffffff82169050919050565b6000610bd382610ba8565b9050919050565b610be381610bc8565b8114610bee57600080fd5b50565b600081359050610c0081610bda565b92915050565b600080fd5b600080fd5b600080fd5b60008083601f840112610c2b57610c2a610c06565b5b8235905067ffffffffffffffff811115610c4857610c47610c0b565b5b602083019150836001820283011115610c6457610c63610c10565b5b9250929050565b600080600060408486031215610c8457610c83610b9e565b5b6000610c9286828701610bf1565b935050602084013567ffffffffffffffff811115610cb357610cb2610ba3565b5b610cbf86828701610c15565b92509250509250925092565b6000819050919050565b610cde81610ccb565b8114610ce957600080fd5b50565b600081359050610cfb81610cd5565b92915050565b60008060408385031215610d1857610d17610b9e565b5b6000610d2685828601610bf1565b9250506020610d3785828601610cec565b9150509250929050565b610d4a81610bc8565b82525050565b60008115159050919050565b610d6581610d50565b82525050565b6000604082019050610d806000830185610d41565b610d8d6020830184610d5c565b9392505050565b600060208284031215610daa57610da9610b9e565b5b6000610db884828501610bf1565b91505092915050565b600081519050919050565b600082825260208201905092915050565b6000819050602082019050919050565b610df681610bc8565b82525050565b610e0581610d50565b82525050565b604082016000820151610e216000850182610ded565b506020820151610e346020850182610dfc565b50505050565b6000610e468383610e0b565b60408301905092915050565b6000602082019050919050565b6000610e6a82610dc1565b610e748185610dcc565b9350610e7f83610ddd565b8060005b83811015610eb0578151610e978882610e3a565b9750610ea283610e52565b925050600181019050610e83565b5085935050505092915050565b60006020820190508181036000830152610ed78184610e5f565b905092915050565b600081519050919050565b600082825260208201905092915050565b6000819050602082019050919050565b600081519050919050565b600082825260208201905092915050565b60005b83811015610f45578082015181840152602081019050610f2a565b60008484015250505050565b6000601f19601f8301169050919050565b6000610f6d82610f0b565b610f778185610f16565b9350610f87818560208601610f27565b610f9081610f51565b840191505092915050565b6000610fa78383610f62565b905092915050565b6000602082019050919050565b6000610fc782610edf565b610fd18185610eea565b935083602082028501610fe385610efb565b8060005b8581101561101f57848403895281516110008582610f9b565b945061100b83610faf565b925060208a01995050600181019050610fe7565b50829750879550505050505092915050565b6000602082019050818103600083015261104b8184610fbc565b905092915050565b600082905092915050565b7f4e487b7100000000000000000000000000000000000000000000000000000000600052604160045260246000fd5b7f4e487b7100000000000000000000000000000000000000000000000000000000600052602260045260246000fd5b600060028204905060018216806110d457607f821691505b6020821081036110e7576110e661108d565b5b50919050565b60008190508160005260206000209050919050565b60006020601f8301049050919050565b600082821b905092915050565b60006008830261114f7fffffffffffffffffffffffffffffffffffffffffffffffffffffffffffffffff82611112565b6111598683611112565b95508019841693508086168417925050509392505050565b6000819050919050565b600061119661119161118c84610ccb565b611171565b610ccb565b9050919050565b6000819050919050565b6111b08361117b565b6111c46111bc8261119d565b84845461111f565b825550505050565b600090565b6111d96111cc565b6111e48184846111a7565b505050565b5b81811015611208576111fd6000826111d1565b6001810190506111ea565b5050565b601f82111561124d5761121e816110ed565b61122784611102565b81016020851015611236578190505b61124a61124285611102565b8301826111e9565b50505b505050565b600082821c905092915050565b600061127060001984600802611252565b1980831691505092915050565b6000611289838361125f565b9150826002028217905092915050565b6112a38383611053565b67ffffffffffffffff8111156112bc576112bb61105e565b5b6112c682546110bc565b6112d182828561120c565b6000601f83116001811461130057600084156112ee578287013590505b6112f8858261127d565b865550611360565b601f19841661130e866110ed565b60005b8281101561133657848901358255600182019150602085019450602081019050611311565b86831015611353578489013561134f601f89168261125f565b8355505b6001600288020188555050505b50505050505050565b7f4e487b7100000000000000000000000000000000000000000000000000000000600052603260045260246000fdfea2646970667358221220af371628841b31acc5f05bc4978cf836a26253b540c680ca3e0227f111058d3d64736f6c63430008180033",
  "linkReferences": {},
  "deployedLinkReferences": {}
}